:100000000C94C3020C94FB020C94FB020C94FB02B4
:100010000C94FB020C94FB020C94FB020C94FB026C
:100020000C94FB020C94FB020C9461250C94342676
:100030000C9466200C94FB020C94FB020C94FB02C3
:100040000C94FB020C94FB020C94FB020C94FB023C
:100050000C94FB020C94FE200C94FB020C94FB020B
:100060000C94FB020C94FB020C94FB020C94FB021C
:100070000C94FB020C94FB020C94FB020C94FB020C
:100080000C94FB020C94FB020C94FB020C94FB02FC
:100090000C94FB020C94FB020C94FB020C94FB02EC
:1000A0000C94FB020C94FB020C94FB0268747470B9
:1000B000733A2F2F716D6B2E666D2F0A00514D4BC9
:1000C00020697320746865206265737420746869A0
:1000D0006E672065766572210029001F00210023CC
:1000E00000250027002E002B001A0015001C000C14
:1000F00000130030003900160009000B000E003319
:10010000023100E1001B0019001100360038002800
:1001100000E300E2002C001000E600E700B300E07E
:10012000001D00060005000D003700E50004000773
:10013000000A0018000F0034000000140008001727
:1001400000240012002F0035001E002000220000B5
:100150000026002D002A0000047F3F1F6432146433
:100160003214783C1E1E140A052223252628292A2B
:100170002C2D2F3032333536383A3B3D3E4042430A
:100180004547494A4C4E5051535557595A5C5E6049
:1001900062646668696B6D6F71737577797B7D7F5B
:1001A00081838587898A8C8E90929496989A9C9E5A
:1001B0009FA1A3A5A7A8AAACAEAFB1B3B4B6B8B976
:1001C000BBBCBEBFC1C2C3C5C6C7C9CACBCCCDCEDE
:1001D000D0D1D2D2D3D4D5D6D7D7D8D9D9DADADBC1
:1001E000DBDBDCDCDCDCDCDDDDDDDDDCDCDCDCDC4D
:1001F000DBDBDBDADAD9D9D8D7D7D6D5D4D3D2D28C
:10020000D1D0CECDCCCBCAC9C7C6C5C3C2C1BFBE73
:10021000BCBBB9B8B6B4B3B1AFAEACAAA8A7A5A3DE
:10022000A19F9E9C9A98969492908E8C8A8987859D
:1002300083817F7D7B79777573716F6D6B6968667C
:100240006462605E5C5A5957555351504E4C4A494E
:1002500047454342403E3D3B3A3836353332302FF6
:100260002D2C2A292826252322FFAA7F554000016C
:100270000101010101010101020202020202020266
:100280000203030303030303030404040404040438
:1002900005050505050606060606070707070708FC
:1002A000080808090909090A0A0A0B0B0B0C0C0CAF
:1002B0000D0D0D0E0E0E0F0F0F1010111111121249
:1002C00013131414151516161717181819191A1AC6
:1002D0001B1B1C1D1D1E1E1F202021222223242427
:1002E000252626272829292A2B2C2D2D2E2F303163
:1002F0003232333435363738393A3B3C3D3E3F4075
:100300004142434445464748494A4C4D4E4F50515F
:100310005354555658595A5B5D5E5F616264656619
:1003200068696B6C6D6F7072737577787A7B7D7EA0
:100330008082838587888A8C8E8F91939596989AF0
:100340009C9EA0A2A3A5A7A9ABADAFB1B3B5B7BA08
:10035000BCBEC0C2C4C6C9CBCDCFD1D4D6D8DBDDDC
:10036000DFE2E4E7E9EBEEF0F3F5F8FAFDFF000079
:100370000000000000002A2B280000000000000000
:1003800000000000000000000029000000002C1EFA
:100390003420212224342627252E362D3738271EB7
:1003A0001F202122232425263333362E37381F04DD
:1003B00005060708090A0B0C0D0E0F101112131475
:1003C00015161718191A1B1C1D2F3130232D350433
:1003D00005060708090A0B0C0D0E0F101112131455
:1003E00015161718191A1B1C1D2F3130354C00001B
:1003F00000000000000000000000000000000000FD
:1004000000000000000000000000000000000000EC
:1004100000007E0F00D4FFFFFFC70000007812032A
:1004200064006A0076007300680068006B00620078
:1004300000000A0364006A007600730000000403F1
:10044000090409023B00020100A0FA0904000001AE
:10045000030101000921110100012240000705816B
:100460000308000109040100010300000009211133
:1004700001000122B60007058203200001120100DD
:1004800002000000080912099201000102000105A2
:10049000010902A10185020901A10005091901292B
:1004A000081500250195087501810205010930092B
:1004B000311581257F95027508810609381581253A
:1004C0007F950175088106050C0A38021581257F84
:1004D000950175088106C0C005010980A101850349
:1004E00019012AB700150126B70095017510810082
:1004F000C0050C0901A101850419012AA0021501FA
:1005000026A002950175108100C005010906A10110
:100510008506050719E029E71500250195087501ED
:1005200081020507190029EF1500250195F07501D5
:1005300081020508190129059505750191029501AA
:1005400075039101C005010906A101050719E029FC
:10055000E71500250195087501810295017508814F
:10056000010507190029FF150026FF0095067508EB
:10057000810005081901290595057501910295016C
:1005800075039101C00011241FBECFEFDAE0DEBF7A
:10059000CDBF04B603FE18C08091060390910703F7
:1005A000A0910803B09109038730904BA740B04B4E
:1005B00059F4109206031092070310920803109248
:1005C0000903E0E0F8E3099511E0A0E0B1E0ECE117
:1005D000F3E502C005900D92A03CB107D9F723E0E6
:1005E000A0ECB1E001C01D92A630B207E1F70E9475
:1005F00045120C9425290C9400009C01FB01211547
:100600008EE7380729F021303E4759F081E0089500
:1006100082818823D9F360E08DEB90E00E94801DF9
:10062000F5CF8281882391F360E08CEA90E0F6CFE9
:10063000811112C0693080F4473070F4E42FF0E08B
:1006400087E0689FE00DF11D1124EE0FFF1FE752B8
:10065000FF4F85919491089580E090E008950E9465
:100660001803089581E008950E94FD0208950895F9
:100670000E9437030895A5E0B0E0E1E4F3E00C94B4
:100680007D2849835A833091C70189819A8131112C
:1006900019C0662399F0222389F00E945E09182F61
:1006A000682F89819A810E943A0969817A81812F14
:1006B0000E94C30F2596E3E00C9499280E944C09F0
:1006C000182FF3CF0E945E0969817A81F1CFFC0176
:1006D000262F408151816281738184810E943B0376
:1006E000089581E00895CF93DF93D82FC92F60E05C
:1006F0000E9467036D2F7C2F0E943803DF91CF91FA
:1007000008950E94F61008950E94FA100895089521
:100710000E9406080E9487032FEF84E39CE021508B
:1007200080409040E1F700C0000008950E948803D7
:100730000E94222108950E9488030E944621089564
:100740000F931F93CF93DF938C0161E00E946703A7
:10075000EC01B8010E9434038823E1F1B801CE0115
:100760000E94821E8823B1F1B801CE010E943E1C76
:10077000882381F1B801CE010E94E81D882351F140
:10078000B801CE010E94A11B882321F1F8018281CA
:10079000882381F0CA35FCE7DF0739F178F4C130EE
:1007A000ECE7DE07F9F0C330FCE7DF07C9F0C1155D
:1007B000DC4771F0C8010E9432030DC0CB35ECE775
:1007C000DE07B1F0CC35DC47A9F70E94630DF2CF0C
:1007D0000E94960380E0DF91CF911F910F910895C1
:1007E0000E94750D0E949B03F5CF0E946D0DE2CF14
:1007F0000E94710DDFCF0E9443200E9425040895BE
:100800000E9429040E944820089508950E9405042A
:10081000089581E008950895CF93DF93D82F0E9423
:100820000904C82F882319F08D2F0E940B048C2FE8
:10083000DF91CF9108950895CF93C82F0E940604A9
:100840008C2F0E940C04CF91089580E00E941C041C
:1008500008950E94CD1E0E941C040895CF930E940B
:10086000CD1EC82F8091C2018C1779F0C093C201B0
:100870000E94D2206093C3017093C4018093C5018C
:100880009093C6018C2F0E941C04CF910895ABE079
:10089000B0E0EDE4F4E00C947A28142F4F83052F98
:1008A000588769877A878B87EA84FB8461110E9465
:1008B000AC0C1E8285E0FE013796DE011196019098
:1008C0000D928A95E1F7E114F10461F449815A81AE
:1008D0006B817C818D819E810E94D20B2B96E6E0FC
:1008E0000C94962810231F3F89F3CE0101960E9495
:1008F00071038111EBCFF2CFFC01808191810E94C5
:1009000090090895662329F00E94D6120E94971339
:1009100008950E941F13FACFCF93C82F8823C9F0E0
:100920008238C9F40E94CD1E81FD13C089E30E9464
:10093000610C0E94CD0C2FEF37EE83E02150304048
:100940008040E1F700C0000089E30E94690C0E942A
:10095000CD0CCF9108958338A1F40E94CD1E80FD67
:10096000F8CF83E50E94610C0E94CD0C9FEF21EE31
:1009700034E0915020403040E1F700C0000083E5B2
:10098000E4CF8438A1F40E94CD1E82FDE2CF87E43B
:100990000E94610C0E94CD0C8FEF91EE24E08150FB
:1009A00090402040E1F700C0000087E4CECF8CEFFC
:1009B0008C0F813A90F46C2F80910001909101018D
:1009C0000E94661F882329F08C2F0E94690C0E94C8
:1009D000CD0C8C2F0E94610CBACF80E28C0F883036
:1009E00048F4C77081E001C0880FCA95EAF70E94F9
:1009F0008D0CADCF8BE58C0F833038F42C2F245227
:100A0000330BC9010E94041FA4CFE8E5EC0FE931C4
:100A100050F4F0E0EE0FFF1FEA5DFE4F8081918100
:100A20000E942A1F96CF83E38C0F833108F091CF69
:100A300061E08C2F0E9482048CCF882309F456C079
:100A4000823879F40E94CD1E81FF50C089E30E9454
:100A5000610C0E94CD0C89E30E94690C0E94CD0CB0
:100A60000895833859F40E94CD1E80FF3FC083E56E
:100A70000E94610C0E94CD0C83E5EECF843859F4BE
:100A80000E94CD1E82FF32C087E40E94610C0E944A
:100A9000CD0C87E4E1CF9CEF980F913AE8F290E219
:100AA000980F983050F4877091E001C0990F8A95A3
:100AB000EAF7892F0E94930CD1CF9BE5980F9330D2
:100AC00028F480E090E00E94041F089598E5980FB4
:100AD000993128F480E090E00E942A1F089593E362
:100AE000980F933118F460E00E94820408951F93D8
:100AF000CF93DF93182FEB010E948C04209739F4D9
:100B0000812F0E941D05DF91CF911F9108958FE9DC
:100B10009FE00197F1F700C000002197EFCF60E060
:100B200070E0893311F460E570E00E947705089564
:100B3000882321F00E948D0C0E94CD0C08958823FB
:100B400021F00E94930C0E94CD0C0895A0E0B0E02B
:100B5000ECEAF5E00C9478286C01D62FC72FFC0145
:100B60001281058102950F700E94820CE82E882365
:100B7000B9F0E12E1123A1F08C2F807F803421F079
:100B800080E28D0F8830B8F08091CB0282FF13C0D5
:100B900082E00E94300D0E94820C91E0E82EE9264E
:100BA000EC2FE295EF70C03C08F062C0F0E0E95D28
:100BB000F64D0C943728E12CF3CF0C2F0F70C03179
:100BC00010F00295007F112399F0002359F080E284
:100BD0008D0F883010F0D11107C0802F0E948D0C2E
:100BE0000E94CD0C8D2F42C0802F0E949E0CF8CF0A
:100BF0008D2F0E941D050023D9F180E28D0F8830D2
:100C000010F0D11104C0802F0E94930C03C0802FDC
:100C10000E94A40C0E94CD0C2BC0FC2FFF70FF2E55
:100C2000C07FC03219F0F29480EFF822DD2381F00A
:100C3000D13009F45EC0112309F466C0002309F421
:100C40005DC0F601858180FFCDCF8F70858356C052
:100C50008091CB0282FD2BC0112311F1FF2029F0DE
:100C60008F2D0E948D0C0E94CD0C80E00E948C0480
:100C7000EE2089F00E947E0C80FD0DC0F6011282EC
:100C80000E94780C0E949708C6010E94C7070E9424
:100C9000780C0E94A708CDB7DEB7E8E00C94942842
:100CA00080E00E941D05FF2019F38F2DADCF112389
:100CB00081F0011106C00E94AF0C8F290E94980597
:100CC000D7CF0130C1F70E94AF0C8F290E94B60C1C
:100CD000CFCF011106C00E94C30C8F2D0E949F052B
:100CE000C7CF013029F28F2D0E949F050E94C30CAF
:100CF000BFCF112329F0063008F0BACF8F2DDECFF9
:100D0000053008F0B5CFE9CF002339F3D93349F4E2
:100D1000FFEF27EE63E0F15020406040E1F700C0B4
:100D200000008D2F0E941D05A3CF8C2F86958695E0
:100D30008370882369F0813009F09ACF8D2F9C2F22
:100D40009370111102C080E090E00E942A1F90CFA2
:100D50008D2F9C2F9370111102C080E090E00E94B3
:100D6000041F86CF612F8D2F0E94820481CF8C2F8C
:100D70008370811139C0111129C04D2F42954695BC
:100D80004770440F440F2D2F2F7030E0042E02C007
:100D9000220F331F0A94E2F780E090E0D4FF09C0ED
:100DA0008FE090E002C0880F991F4A95E2F7809586
:100DB0009095C695C695C370822B932BC23071F067
:100DC000C33079F0C13039F00E9467080E94CD1E0F
:100DD0000E941C044DCF0E945E08F8CF0E9470084C
:100DE000F5CF0E945B08F2CF112361F1C0FFEECF77
:100DF0008D2F829586958770880F880F4D2F4F70A5
:100E000050E0082E02C0440F551F0A94E2F7D4FFA9
:100E10001CC02FE030E0F90102C0EE0FFF1F8A95E1
:100E2000E2F7CF0180959095C695C695C370842B47
:100E3000952BC23081F0C33089F0C13049F00E9457
:100E4000D208C4CF823010F2D3CF80E090E0ECCF54
:100E50000E94C908BBCF0E94DB08B8CF0E947F0860
:100E6000B5CFCF70112339F08C2F0E9497088D2FAA
:100E70000E949805ABCF8D2F0E949F058C2F0E945A
:100E8000A708A4CFD23F31F170F4D03FB9F0D13FE1
:100E9000B1F1112309F451C0002309F44BC08D2F87
:100EA0000E948C0493CFD33FE1F0D43F21F1111184
:100EB000F3CF011150C08C2F8F71E1CF112341F07E
:100EC000053008F083CF8C2F8F710E94B9087ECF38
:100ED0000530F7CF8C2F8F711111D1CF0E94970859
:100EE00075CF112329F08C2F8F710E948B086ECF44
:100EF0000E9486086BCF8091CB0282FD06C08C2FAA
:100F00008F71112309F4BBCFE9CF112349F0CF71C1
:100F10008C2F0E94970863E08C2F0E94120D56CFF1
:100F200081E00E94300D023008F450CF82E00E9430
:100F3000300D4CCF8C2F8F71D1CF002309F4BBCF54
:100F4000D93349F4FFEF27EE63E0F15020406040D1
:100F5000E1F700C000008D2F0E941D0537CF0F93D1
:100F60001F93CF93DF93EC01688179818A810E947E
:100F70009D098C010E94E4080E945A08B801CE0124
:100F80000E94A605DF91CF911F910F910895CF93F5
:100F9000DF93EC01988189812B813C81232BB1F077
:100FA00089238F3F99F0CE010E94A003811111C0C7
:100FB0000E94820C882351F08A81882339F0809125
:100FC000CB0282FF03C082E00E94300DDF91CF91FF
:100FD0000895CE010E94AF07CE010E947303F6CFA1
:100FE00080E090E00E94041F80E090E00E942A1FB1
:100FF0000E94AC0C0E94CD0C0E94B4130E94971367
:1010000008950E94710C0E94F00708950E949B0CA5
:101010000E9401080895282F92959F70963091F0B4
:1010200060F4925F9F70923030F481E0203F79F05D
:1010300030F4283E30F080E008959A5FF3CF243FEB
:10104000D1F7089581E0283EE0F3213FF9CF0895DC
:10105000FC0183819481892B61F0818190818923B6
:101060008F3F39F0808191810E9490090E940B0886
:10107000089580E00895A5E0B0E0E1E4F8E00C9484
:101080007E282596E2E00C949A28A6E0B0E0EBE4F6
:10109000F8E00C947E282696E2E00C949A280895B5
:1010A0000E944F0808950E9450089093EB0180938E
:1010B000EA01089508950E94530808952091EA01D5
:1010C0003091EB01822B932B0E94530808952091BD
:1010D000EA013091EB01822393230E945308089583
:1010E0002091EA013091EB01822793270E94530857
:1010F00008950E944F0808950E94790808950E945B
:101100007C089093E9018093E801089580E090E0E5
:101110000E947F08089521E030E0A90102C0440F39
:10112000551F8A95E2F7CA010E947F08089521E0C1
:1011300030E002C0220F331F8A95E2F78091E80168
:101140009091E901822B932B0E947F08089521E062
:1011500030E002C0220F331F8A95E2F720953095C8
:101160008091E8019091E901822393230E947F08F6
:10117000089521E030E002C0220F331F8A95E2F784
:101180008091E8019091E901822793270E947F08CE
:1011900008952091E8013091E901822B932B0E9460
:1011A0007F0808952091E8013091E901822393237B
:1011B0000E947F0808952091E8013091E90182277B
:1011C00093270E947F08089508959B01677091E01E
:1011D00001C0990F6A95EAF763E0369527956A95FD
:1011E000E1F7220F331F220F331FFA01E20FF31F23
:1011F00040E050E0682F70E08191DF0111979B0182
:10120000042E02C0369527950A94E2F721702195A5
:101210002827292328272C934F5F5F4F44305105FF
:1012200059F708959C01982F977083E0369527957C
:101230008A95E1F7220F331F220F331FFB01E20FC4
:10124000F31F40E050E080E0219130E0092E02C021
:10125000369527950A94E2F721703327042E01C0B2
:10126000220F0A94EAF7822B4F5F5F4F44305105FB
:1012700059F70895282F862F993068F4273058F4AD
:10128000622F70E027E0929F600D711D112448ECE1
:1012900051E00E94E5080895292F993068F48730BD
:1012A00058F490E068EC71E037E0239F800D911DC9
:1012B00011240E941209089580E00895A0E0B0E092
:1012C000E4E6F9E00C9477288C01E090E801F090D6
:1012D000E9018091EA019091EB01E82AF92ACFE037
:1012E000D0E0CC24C394D12CC6010C2E02C0880FB0
:1012F000991F0A94E2F78E219F21892B49F42197A7
:1013000098F7B12C8B2DCDB7DEB7E9E00C9493287C
:10131000BC2EB8018C2F0E94CF0F019781F3F2CF22
:10132000CF93DF93D82FC92F0E945E096D2F7C2F9A
:101330000E94CF0FDF91CF9108951F93CF93DF933A
:10134000162FD72F9091C701992341F0862F972F01
:101350000E949009DF91CF911F910895882381F019
:10136000862F972F0E945E09C82F682F812F9D2FEF
:101370000E943A09612F7D2F8C2F0E94CF0FEACF58
:10138000862F972F0E944C09C82FF4CF0F931F93DD
:10139000CF93E091EC01C6E08091ED018E1304C083
:1013A000CF911F910F9108950E2F10E0CE9FF00165
:1013B0001124E251FE4F4081518162817381848109
:1013C00095810E944508F8013196E770E5CF40917C
:1013D0001E0250911F0260912002709121028091A3
:1013E0002202909123020E94450808951F93CF93F3
:1013F000DF9380912302803108F04CC0809120025D
:10140000882309F447C08091EC012091ED0160919F
:101410001E0230911F02C0912102D0912202732F2F
:1014200076232817B9F190E0209709F443C016E01D
:101430007F3F09F43FC0189FF001199FF00D112460
:10144000DF01A251BE4F11964C91119734132CC05D
:101450004C91461329C012964C91129741111EC00F
:1014600013964D915C914C1B5D0B483C5105E0F48B
:10147000809123028F70806180932302ED50FE4F94
:1014800080818F70806180838EE192E00E94C70727
:101490000E94C609DF91CF911F9108950196877030
:1014A00099272813C8CFF6CF01968770992728135C
:1014B000BFCFF0CF01968770B4CF8F929F92AF923B
:1014C000BF92DF92EF92FF920F931F93CF93DF9320
:1014D000CDB7DEB72B970FB6F894DEBF0FBECDBFEA
:1014E0008C0185E0F801DE01179601900D928A9536
:1014F000E1F7F801F280A380B4808EE1882E82E0CB
:10150000982E90911E0220911F024091210250912D
:1015100022024115510509F431C1822F89238F3FE1
:1015200009F42CC1D0902002B501641B750BDD209D
:1015300009F4E8C080912302683C710508F0BBC043
:101540003181803108F079C0EF2C321314C0208132
:10155000291311C0F1101EC08F7080618093230287
:101560000E94E709C4010E94C70780912302F80185
:101570008583E12C4FC09F818885AB2889F0282F77
:1015800029232F3F69F0E091EC012091ED0136E035
:10159000FF20E1F080912302816080932302E9CF54
:1015A000FF2039F3F7CF4E2F50E03E9FF00111247A
:1015B000E251FE4F6181861306C06081691303C04A
:1015C00062816111D6CFFA013196E770E213EBCF59
:1015D0008F8198850E949009292F22952F70903233
:1015E00048F49F70992311F08823A1F0805E883021
:1015F00088F004C0225F2F70223028F0C8010E94BA
:10160000C707ED2C07C09F70992381F3F8019581DE
:10161000903160F78E2D2B960FB6F894DEBF0FBE7B
:10162000CDBFDF91CF911F910F91FF90EF90DF9091
:10163000BF90AF909F908F900895321312C0208179
:1016400029130FC0F1100DC08583C8010E94C70780
:1016500086E0F801AEE1B2E001900D928A95E1F7E3
:1016600025C0C8010E942808882309F47BC0FF20F8
:1016700009F478C080912302803270F020911E021C
:1016800030911F023A8329831B82BD82AC828E83F4
:10169000CE0101960E94C70786E0F801AEE1B2E0F4
:1016A00001900D928A95E1F70E94F6090E94E709E0
:1016B000EE24E394AFCF803198F44F81588569854B
:1016C0007A858B850E943B088EE192E00E94C707D5
:1016D00086E0F40111928A95E9F70E94E70949CF63
:1016E00031812313BECF20812913BBCFF110B9CF95
:1016F0008583C8010E94C70786E0F40111928A958C
:10170000E9F7D6CF683C710588F5FF2059F1818152
:1017100028131EC0808189131BC08091230280FD85
:101720000EC0803160F08583807F803F09F48DCFCB
:101730008581982F907F905F8F70892B85CF86E071
:10174000F801AEE1B2E001900D928A95E1F7B0CFD9
:10175000C8010E94280881119FCF809123028160D7
:1017600080932302C8010E94C707A2CF4F815885EA
:1017700069857A858B850E943B08AACFFF2091F36B
:10178000C8010E942808882369F386E0F801AEE1C9
:10179000B2E001900D928A95E1F78EE192E00E940D
:1017A0007C0482CFACE0B0E0E8EDFBE00C947D2857
:1017B0004F83588769877A878B879C87CE010796E6
:1017C0000E945D0A8823D9F08A859B85892B61F068
:1017D00058854F81852F84238F3F31F069857A8525
:1017E0008B859C850E94450816E08091EC019091C4
:1017F000ED01891344C02C96E3E00C94992886E00F
:10180000FE013796DE01119601900D928A95E1F75F
:101810008F8198852091ED014091EC016A857B854F
:10182000672B11F389238F3FF9F230E0C90101964C
:101830008770992750E08417950771F40E94060875
:101840001092ED011092EC0186E0EEE1F2E0DF0192
:101850001D928A95E9F7C8CF96E0929FD001939F99
:10186000B00D1124A251BE4FFE01319601900D9290
:101870009A95E1F78093ED010E94C609B5CF189FB4
:10188000C001112482519E4F0E945D0A882309F4F1
:10189000B2CFE091EC011E9FF0011124E251FE4F06
:1018A0004081518162817381848195810E944508C4
:1018B0008091EC0190E00196877099278093EC016C
:1018C00094CF682F80910001909101010E94ED1F3B
:1018D0000895682F80910001909101010E94FB1FE3
:1018E000089580910001909101010E9409200895BE
:1018F000809144028595859585950895809144024F
:101900008770089590914402977081E0911101C011
:1019100080E0089580916702089590916702982B66
:10192000909367020895982F90958091670289237C
:10193000809367020895109267020895909166025D
:10194000982B909366020895982F90958091660247
:10195000892380936602089510926602089580910B
:101960004502089508950E94B20C08959091CB020B
:1019700092FF08C090914502981721F0809345028C
:101980000E94B30C089580914502882329F010929B
:10199000450280E00E94B30C0895CF93DF93E0915D
:1019A0000001F0910101809167028083E0910001C4
:1019B000F0910101808190916602892B8083909142
:1019C0004502992381F0E0910001F09101018081AD
:1019D000892B808380910001909101010E94501F0A
:1019E00081110E94C30CC0910001D091010140E21D
:1019F00050E064E272E0CE010E94C728892B59F0C2
:101A000080E2FE01A4E2B2E001900D928A95E1F736
:101A1000CE010E94DA1EDF91CF91089508950E94B1
:101A20000E0D08959091CB0292FF11C098E0899F0E
:101A300090011124622B609344020E9497088091C8
:101A400044028595859585950E940F0D08950E9405
:101A5000970808951092440280E00E940F0D0895A7
:101A6000209144028095822380934402982F97709E
:101A7000911113C030E0482F082E000C550B24178D
:101A8000350759F09091CB0292FF07C08595859557
:101A900085950E94A7080E942A0D08959091CB0277
:101AA00092FB222720F9281769F080FB92F9909386
:101AB000CB028091CA029091CB020E94960D82E0E7
:101AC0000E94300D08958091CB0282FB882780F917
:101AD00091E089270E944E0D089581E00E944E0DED
:101AE000089580E00E944E0D08956FEF7FEF80E033
:101AF00090E00E940F29089580E090E00E94EB287A
:101B00009C0181E0273E3E4F09F080E0089582E08D
:101B100090E00E94DD28089583E090E00E94DD2897
:101B2000089584E090E00E94EB280895BC0184E0D1
:101B300090E00E940F290895AB01BC018FE090E076
:101B40000E9403290895AB01BC0183E190E00E944B
:101B50000329089560E070E0CB010E94A30D089571
:101B600060E070E0CB010E949C0D0E94AA0D0895D8
:101B700067EE7EEF80E090E00E940F2960E082E057
:101B800090E00E94F12860E083E090E00E94F1285C
:101B90001092EB011092EA0160E074E184E090E0C1
:101BA0000E940F2960E086E090E00E94F1286FEF2C
:101BB00087E090E00E94F12840E050E0BA0188E020
:101BC00090E00E94032960E08DE090E00E94F128FF
:101BD00040E050E0BA0188E190E00E94032960E013
:101BE00087E190E00E94F12840E050E0BA018CE1EA
:101BF00090E00E94032960E070E080E290E00E94A3
:101C00000F2940E050E0BA0188E190E00E940329EA
:101C10000E94B00D08950E94B80D0895682F8EE0BF
:101C200090E00E94F12808950E94D22060937702EC
:101C3000709378028093790290937A026093730292
:101C400070937402809375029093760208950895BC
:101C500008950E94280E089508950E942C0E08955C
:101C60008BEB90E10E94C31E0E94270E0E94290E5A
:101C7000089581E008950E94390E08950895089509
:101C80000E943E0E0E943F0E08950E94D7100E94AF
:101C90001B0408950E94BD200E94A3110E94450EBE
:101CA0000E94B01A0E942D0E0895A5E0B0E0EBE569
:101CB000FEE00C9476280E94B9118AE6C82E82E0D4
:101CC000D82E760110E0F70101917F01812F0E944B
:101CD000FD101F5F193009F442C00817A1F380916D
:101CE0007B0281FD0E9403110E943B0EA82E00E0A2
:101CF000802F0E94FD10182FF60191916F01891716
:101D000041F1B82EB926F12CEE24E3948E2D8B21CF
:101D10008823B9F0AA20A9F0F9820A8391E08E2DD8
:101D20008123811101C090E09B830E94C6208160C5
:101D3000782F9D838C8349815A816B81892F0E94E2
:101D40004704F394EE0CF7E0FF12E0CFF601319771
:101D500010830F5F093061F60E94140E20C0081333
:101D6000BECF0E94C6208C018091680290916902CA
:101D700008171907A1F08FEF89838A831B820E94BD
:101D8000C6208160782F9D838C8349815A816B8125
:101D9000892F0E94470410936902009368020E94F1
:101DA000E31A0E94D5130E942E042596EAE00C94B3
:101DB0009228CF93DF930E94D40FEC01811522E586
:101DC0009207C8F5811540E5940708F0C3C0803E2E
:101DD0009105F0F48D3C910508F094C0883A910586
:101DE00078F4853A910508F07FC08130910521F0A3
:101DF0000497813A910548F4CE01DF91CF9108957F
:101E0000885A9109499708F472C0C0E0D0E0F4CF35
:101E10008115904468F4C11580E2D80708F0A7C086
:101E2000C83ED10548F3CE019A958F3F9E41E3CF3E
:101E3000DF70D06AE1CF803842E59407C8F580367C
:101E400052E5950708F067C0C03482E5D807B0F0C6
:101E50008C2F86958695877020E2829FC001112481
:101E6000C37021E030E0A90102C0440F551FCA959C
:101E7000E2F7EA01C82BD92BDC68BECFC03252E5AD
:101E8000D50708F041C08C2F8695869520E2829F69
:101E9000C0011124C37021E030E0A90102C0440F49
:101EA000551FCA95E2F7EA01C82BD92BDD68A4CFEC
:101EB000803C52E5950760F48F71C03AD24508F036
:101EC0003FC090E0982F8827EC01C46FD06A94CF70
:101ED000805C9245809708F098CFDC2FCC27CC27E8
:101EE000DF71C06FD06A88CFA497D06485CFC85AFD
:101EF000D0E0CC0FDD1FC85ADE4F0990D881C02D2D
:101F0000D4647ACFD06578CFCF71D0E0DC2FCC27E6
:101F1000C16FD06A71CF86958695877020E2829FC7
:101F2000C0011124C37021E030E0A90102C0440FB8
:101F3000551FCA95E2F7EA01C82BD92BDA685CCFA6
:101F40000E947810C82FD0E0DC2FCC27CC27DF717F
:101F5000D06252CF8F710E94781035E0D695C79528
:101F60003A95E1F7CF709C2FEC01D06945CF8D2FCA
:101F70008F710E94781090E0982F882788279F7192
:101F80008C2BEC01E5CF462F672F793028F44730B2
:101F900018F40E942F03089580E090E008950E94B5
:101FA000C30F0E94D90E0895803E9105D1F1C8F467
:101FB0008133910509F47FC048F48932910509F411
:101FC0006FC08A32910509F47DC008958933910567
:101FD000E1F082389105C9F08533910509F45BC0C1
:101FE0000895843E9105D1F148F4823E910531F186
:101FF000833E910541F181EE90E00895863E910582
:10200000C1F1873E9105E1F108952091CA02237044
:10201000211165C02091CB0223FF14C089E290E01A
:1020200008952091CA0220FD43C03091CB0230FFB9
:1020300009C024FF4EC080E090E008952091CA02BC
:1020400022FDF7CF08952091CA0222FD45C03091AC
:10205000CB0230FD44C024FFF5CFEDCF2091CB0261
:1020600021FFF0CF8091CA0284FDE5CF87EE90E09A
:1020700008952091CA0223FFE5CF24FDDCCFF6CFDF
:102080002091CA0223FD2EC03091CB0231FFE3CF55
:1020900084EE90E008952091CA0225FFD3CFBECFF1
:1020A0002091CA0225FD21C02091CB0223FFCACF77
:1020B00089E390E008952091CA0226FFC3CF8AE207
:1020C00090E008952091CA0226FFBCCF81E390E002
:1020D000089583EE90E0089582EE90E0089580EEFA
:1020E00090E0089586EE90E0089585E390E0AACF11
:1020F0009091CA0292FF06C0282F28712830F9F467
:10210000877F846093FF06C0282F28712831F1F45F
:10211000877E84612091CB0220FF06C0382F387162
:102120003830D9F4877F816021FF06C0282F2871BD
:102130002831D1F4877E816194FD877E0895282F10
:1021400024712430F9F68B7F8860DCCF282F24712E
:10215000243101F78B7E8861DDCF382F317131302A
:1021600019F78E7F8860E0CF282F2171213121F768
:102170008E7E8861E1CF80E008950E94750D0895FC
:102180000E94B9118FE39CE90197F1F700C00000AC
:102190000E94B91180E00E94FD1080FF04C00E94DF
:1021A000BD100E94222108950E94C01008950E942F
:1021B0007C0D811102C00E940B0E0E94870D80933E
:1021C0007B020E94910D9093CB028093CA020E94E1
:1021D000D4100E948C0D90E00E945B088091E80171
:1021E0009091E9010E947C08089508950E94F510DD
:1021F000089508950E94F9100895E82FF0E0EB5239
:10220000FD4F80810895089580EA8A95F1F7089539
:1022100000C008950E9404110895F894E82FE295F3
:10222000EF70F0E041A18F7021E030E0B90102C011
:10223000660F771F8A95E2F7CB01962F909594232E
:1022400091A392A1892B82A3789408950F931F9351
:10225000CF93DF93C1E9D1E089918F3F11F00E94C4
:102260000D1181E0CA39D807B9F7CAE8D1E001E910
:1022700011E089918F3F11F00E940D110C171D077D
:10228000C1F7DF91CF911F910F910895A0E0B0E0C9
:10229000ECE4F1E10C947828EC01D62E062F10E046
:1022A000C8018F569E4F7C01FC0180818F3F09F44D
:1022B00045C0F894E82FE295EF70F0E091A18F709F
:1022C00021E030E001C0220F8A95EAF7892F822BA6
:1022D00081A382A12095282322A378940E9408112B
:1022E000EAE8F1E091E0C12C81918F3F81F0A82FC5
:1022F000A295AF70A05EB0E02C9130E08F7002C06C
:10230000359527958A95E2F72170892F211180E074
:10231000C82A990F81E0E139F80731F7F701808188
:102320008F3F11F00E940D1161E0C11001C060E00B
:102330008D2D0E940A11C00FD11FC882CDB7DEB704
:10234000E8E00C9494280E94261189E0E5EDF2E083
:10235000DF01982F1D929A95E9F7ECECF2E0DF018E
:102360001D928A95E9F789E00E94F7110E94810386
:102370000895A9E0B0E0EFEBF1E10C947B281A821C
:102380001982FE01339687E0DF011D928A95E9F7F5
:10239000F12C8E010F5F1F4F6F2DC8010E94461157
:1023A000F394B9E0FB12F8CF49E050E0B8018CECAF
:1023B00092E00E94C72821E0892B81F420E049E0C7
:1023C00065ED72E08CEC92E00E94F811182F0E94EB
:1023D0008403812F2996E5E00C94972889E0F80181
:1023E000ACECB2E001900D928A95E1F7E8CF089548
:1023F000A0E0B0E0EEEFF1E10C947928D82EE92EC0
:10240000F62E072FC42F222349F081E080937E020D
:102410000E94C62090937D0280937C0210917E02E0
:10242000111107C010E0812FCDB7DEB7E7E00C94A3
:10243000952880917C0290917D020E94EF20059763
:1024400088F3D0E0AE016D2D7E2D8F2D902F0E9450
:10245000C728892B51F0AE016D2D7E2D8F2D902F29
:102460000E94D42810927E02DECF10E0FBCF0E94A3
:10247000BE220E944A0E0E94CB2208950E94D022C2
:102480000E94550E0E94EA2208950E945F200E9439
:10249000A4220E94300E0E9437120E943E120E9417
:1024A000400EFBCF8091850280FF0DC06091070137
:1024B00070E0660F771F60387105C0F56115710512
:1024C000B9F1862F089581FF07C06091070184E06C
:1024D000689FB0011124EFCF82FF04C06091070113
:1024E00088E0F6CF809184028823E9F0909106017C
:1024F0006091070170E0891730F093E0660F771F55
:102500009A95E1F7D8CF869F9001879F300D1124CF
:1025100083E0220F331F8A95E1F7692F70E0C9012C
:102520000E940128C8CF68E070E0CBCF8FE7089504
:1025300081E008958091850280FF0CC060910301C5
:1025400070E075956795759567956115710561F1F1
:10255000862F089581FF06C06091030170E0759594
:102560006795F3CF6091030170E082FD15C0209163
:1025700083022223B1F0909102016091030170E087
:10258000291750F4269FA001279F500D1124692F71
:1025900070E0CA010E94012860387105B0F28FE72F
:1025A000089561E070E0D4CF81E00895E3E3E80F9F
:1025B000E331E0F5F0E0ED5CF64D0C9437280E9435
:1025C000521281958093890208950E945212FACF87
:1025D0000E94521281958093880208950E9452129F
:1025E000FACF0E949A1280938A0208950E949A124A
:1025F0008195F9CF0E949A12819580938B0208955C
:102600000E949A12FACF815D990B21E030E001C05F
:10261000220F8A95EAF780918702822B80938702A6
:10262000089580918502816080938502089580914C
:1026300085028260F9CF809185028460F5CF409158
:1026400088028D3C59F48091890287FF0DC0109259
:102650008902442359F41092840208C08E3C81F40C
:102660008091890218169CF3442381F080918A029C
:1026700090918B02892B811159C010928302089589
:102680008F3C41F447FFF0CF10928802809189027D
:102690008823E0CF803D19F41416B4F3E5CF909170
:1026A0008A02893D29F41916FCF610928A02DCCFC1
:1026B0008A3D19F497FFD8CFF8CF90918B028B3DCC
:1026C00029F497FFD1CF10928B02CECF8C3D19F415
:1026D0001916CCF3C9CF9FE2980F983090F4815D22
:1026E000990B21E030E0B90102C0660F771F8A958F
:1026F000E2F7CB018095909187028923809387022E
:10270000B3CF8D3D31F4809185028E7F8093850219
:10271000ABCF8E3D21F4809185028D7FF7CF8F3D29
:1027200009F0A2CF809185028B7FF0CF08950E949F
:10273000C6202091880230918902232B222321F088
:10274000809381029093820220918A0230918B02C1
:10275000232B222321F080937F029093800286E82E
:1027600092E00E94F51E089586E0E6E8F2E0DF01BF
:102770001D928A95E9F710928402109283021092BA
:1027800085020895FC01828181110DC08381811130
:102790000AC08481811107C081E09581911101C037
:1027A00080E08170089581E0FCCFA6E0B0E0EBED21
:1027B000F3E10C947B2886E0E6E8F2E09E012F5FCF
:1027C0003F4FD90101900D928A95E1F7109288024E
:1027D0001092890210928A0210928B028B819C8146
:1027E000892B8901882391F0809181029091820246
:1027F0000E94EF209C01809184028823C9F14091BE
:10280000080150E04217530708F43FC08D819E81B4
:10281000892B882399F080917F02909180020E94F9
:10282000EF209C0180918302882309F46DC04091C0
:10283000040150E04217530708F474C0B80186E859
:1028400092E00E941B20811105C086E892E00E9460
:10285000C21381110E94971386E0F801A6E8B2E046
:1028600001900D928A95E1F72696E5E00C94972861
:10287000409109019AE0499FA00111244217530792
:1028800028F68F5F8093840202C08F3FD1F7FB80D0
:10289000FF2059F00E94521291E01F140CF09FEF9C
:1028A000899F802D112480938802FC80FF2059F09D
:1028B0000E94521291E01F140CF09FEF899F802D0F
:1028C00011248093890230918802332309F49ECF2A
:1028D00020918902222309F499CF45EB3403C001EA
:1028E0001124892F911101C081E08093880245EB6A
:1028F000240390011124332319F03093890286CFE9
:1029000081E08093890282CF409105019AE0499F3E
:10291000A00111244217530708F090CF8F5F8093D6
:10292000830202C08F3FD1F7FD80FF2059F00E9443
:102930009A1291E01F140CF09FEF899F802D1124B3
:1029400080938A02FE80FF2059F00E949A1291E043
:102950001F140CF09FEF899F802D112480938B0210
:1029600030918A02332309F469CF20918B0222230C
:1029700009F464CF45EB3403C0011124892F911170
:1029800001C081E080938A0245EB24039001112469
:10299000332319F030938B0251CF81E080938B0267
:1029A0004DCFA0E0B0E0E7EDF4E10C947628E82FFD
:1029B00071110DC0442321F0F0E0E259FD4F8491E4
:1029C000682F782FCDB7DEB7EAE00C949228262F37
:1029D00030E0C72FD0E0F0E0442321F0E259FD4F72
:1029E000E491F0E086E0829F7001839FF00C112457
:1029F0000FEF10E0C701B8010E94ED27AB01220FD5
:102A0000331F65E5649FC001659F900D1124281B4D
:102A1000390BC22ECC0CC20EC8018C1B9D0B8E9F95
:102A200090018F9F300D9E9F300D1124832FCC9EDF
:102A3000B001CD9E700D1124672F77275801A61A7B
:102A4000B70AAE9ED001AF9EB00DBE9EB00D112450
:102A50007B2F5801AC18B1086501CC9E5001CD9E6A
:102A6000B00CDC9EB00C1124AB2CBB240A191B0942
:102A70000E9FE0010F9FD00D1E9FD00D11246E2FD1
:102A800043305105C9F09CEFE91693E0F90650F484
:102A90004130510509F496CF4230510589F07E2F1F
:102AA0006D2F90CF4430510571F046305105B9F388
:102AB000632F8B2F7E2F86CF6B2F732F8E2F82CF7E
:102AC000732F8D2F7FCF7D2F632FF8CF41E00E9492
:102AD000D114089508950E9466150895CF93DF9349
:102AE000982F762F842FE901692F0E946B15798327
:102AF00068838A83DF91CF9108958091DE028230CE
:102B000028F4817082608093DE0208958A34E8F3AD
:102B100081708864F8CF88E090E00E94E5280895ED
:102B20000F931F93CF93DF938B01D82FC92F0E9450
:102B30007D15A8016D2F7C2F88E090E00E9403296D
:102B4000DF91CF911F910F910895EEEDF2E083E1B7
:102B5000808380E481838FEF82838383148263E1A7
:102B600070E48FEF9FEF0E94901508958091DE0230
:102B700080FF02C08695089580E00895A4E0B0E04B
:102B8000E4ECF5E10C947E289091E202933018F485
:102B90009F5F9093E202882361F08091DE02909122
:102BA000DF02A091E002B091E102BC01CD010E94E0
:102BB00090152496E2E00C949A2881E00E94BE15BC
:102BC0000895A4E0B0E0E7EEF5E10C947E28909142
:102BD000E202992319F091509093E202882361F068
:102BE0008091DE029091DF02A091E002B091E102BB
:102BF000BC01CD010E9490152496E2E00C949A2825
:102C000081E00E94E115089521E030E001C0220F2B
:102C10008A95EAF790919B02922381E0911101C07D
:102C200080E0089570E00E94101C0895A5E0B0E0D7
:102C3000ECE1F6E10C947428B0900E019091DE0264
:102C400090FF18C08090900290909102811491049E
:102C500031F520910D0130E0C901880F991F820FD5
:102C6000931F6B2D8D519D4F0E9412162596ECE0FF
:102C70000C94902880910F0140911001282F30E092
:102C8000F901EE0FFF1FE20FF31FED51FD4F841707
:102C9000C8F61182108212828F5F3396F8CF90FFB0
:102CA000D8CFA12C8A2D0E9404168823D1F1F401DB
:102CB000E590F490E114F10461F245E050E0B701D1
:102CC000CE0101960E94B12889818F3F51F12A815E
:102CD00090E0280F392F311D2730310514F026E000
:102CE00030E06901CC0CDD1CC20ED31E96012D51C3
:102CF0003D4F69018C01000F111F080F191F0D5165
:102D00001D4F0C151D0520F035E0E30EF11CD5CF4D
:102D100098014D816C818B810E946E150D5F1F4F54
:102D2000F0CF82E0880E911CA39428E0A212BACFC3
:102D300090CF9091DE0290FF11C090910F015091C1
:102D40001001292F30E0F901EE0FFF1FE20FF31FF2
:102D5000ED51FD4F951718F00E94161608958183C6
:102D6000608342839F5F3396F5CFA3E0B0E0EBEB47
:102D7000F6E10C947E289091DE0290FF0AC09E013D
:102D80002F5F3F4F0E946E154B8169818A810E949F
:102D900099162396E2E00C949A28CF93DF93EC01E6
:102DA000EC81F0E0E759FE4F4491EEEDF2E06281F4
:102DB00081810E94B5168C818F5F8C83DF91CF91CA
:102DC0000895CF93DF93EC01EEEDF2E04381628151
:102DD0008C810E94B5168C818F5F8C83DF91CF919F
:102DE0000895A3E0B0E0E7EFF6E10C947C288C01B5
:102DF00080918C0281110AC09E012F5F3F4F4FEFDF
:102E00006FEF0E946E158A8180938C02F8016481B5
:102E1000613049F06230D1F080918C0240E066234D
:102E200031F040E015C060918C0240E080E00E94EB
:102E30009916F801848190E0019663E070E00E94A9
:102E4000012884832396E4E00C94982840918C0216
:102E500080E060E0ECCFA7E0B0E0E1E3F7E10C94C4
:102E60007628F82ED62EE42EB22E9091DE0290FF18
:102E70002BC0E92FE695AE2FB0E0A656BE4F8C9141
:102E8000809399029E7F923019F59E012F5F3F4FEC
:102E90008F2D0E946E154B8169818A810E9499163F
:102EA000F092DF02D092E002E092E102BB2061F0FA
:102EB0008091DE029091DF02A091E002B091E102E8
:102EC000BC01CD010E9490152796EAE00C9492284F
:102ED000823019F4E090E102E3CF863019F4F090EB
:102EE000DF02DECF8930D9F38931D1F6E9518E2F57
:102EF0008170A82EE695F0E0E759FD4FE491C12CD2
:102F00000E2F10E060911101C61618F00E941616DF
:102F1000C7CF2C2D30E0C09EC001C19E900D112462
:102F200070E00E94ED278F2DA11013C0860F9091A5
:102F30000F01A901490F511D9A01220F331F240FC0
:102F4000351F2D513D4F4E2D6D2D0E946E15C39492
:102F5000D9CF861BECCF282FEEEDF2E081814381A3
:102F60006281885F0E942B17089581E00E94AB1751
:102F70000895282FEEEDF2E081814381628188502F
:102F80000E942B17089581E00E94B9170895282FF9
:102F9000EEEDF2E0628131E1630F08F46FEF4381FF
:102FA00081810E942B17089581E00E94C717089520
:102FB000282FEEEDF2E0628131E1631B08F460E05E
:102FC000438181810E942B17089581E00E94D817C8
:102FD0000895282FEEEDF2E0438131E1430F08F42C
:102FE0004FEF628181810E942B17089581E00E943A
:102FF000E9170895282FEEEDF2E0438131E1431BFC
:1030000008F440E0628181810E942B17089581E0DD
:103010000E94FA17089520E00E942B170895EF925E
:10302000FF921F93CF93DF93EC0110E0EE24EA941C
:10303000F12C60911101161770F00E9416169A81FA
:103040008C8190FF25C08F5F8C83DF91CF911F9182
:10305000FF90EF90089580910F01810F9927991F9C
:103060009C01220F331F280F391F2D513D4F70E057
:10307000C7010E940128962F8C814091E102609146
:10308000E002199F800D11240E946E151F5FD1CFA1
:103090008150DACFA0E0B0E0E0E5F8E10C947728C9
:1030A000FC01828101E080FD0FEF10E080911101B1
:1030B000181798F00E94161680918E02013009F0C0
:1030C00051C0811102C080911101815080938E0204
:1030D000CDB7DEB7E9E00C94932880910F01C12EA3
:1030E000D12C8C0D9D2D911DEC01CC0FDD1FC80F37
:1030F000D91FCD51DD4F198218821A8234E0E32E98
:10310000F12CB12C80918E028B0D87302CF166E072
:103110000E94DF27892F082E000C990BC816D906AC
:1031200091F48091E1028E9DA0018F9D500D11249C
:1031300055954795559547959E016091E002809180
:10314000DF020E946E15B00EF1E0EF1AF108E114F3
:10315000F104C1F61F5FAACF87FFDDCF9091110167
:10316000890FD9CF90E001966091110170E00E9423
:103170000128ACCF0F931F93CF9380910F019091B3
:103180001001282F30E0F901EE0FFF1FE20FF31FAF
:10319000ED51FD4F891730F1C0E060911101C61764
:1031A00038F10E94161620910B0180918D02820F3A
:1031B00080938D0290910C01920F90930C0119163F
:1031C00054F4082E000C990B409111014150550BFD
:1031D000841795071CF0219520930B01CF911F9127
:1031E0000F9108951182108212828F5F3396D2CF91
:1031F0000C2F10E070E0C8010E94012890910F018F
:10320000980F892F90E020918D02022E000C330B35
:10321000FC01EE0FFF1FE80FF91F02171307ACF0B8
:1032200020910C01022E000C330B201731076CF09B
:103230009F012D513D4F4091E1026091E00280914C
:10324000DF020E946E15CF5FA8CFED51FD4F1182B6
:1032500010821282F8CFAEE0B0E0E1E3F9E10C9425
:103260007A288D879E87AD85BE8514961C91212F67
:1032700030E0D9010E9445289B01AC010E945B28E7
:1032800069837A838B839C83E0E2F0E0E11BF109A0
:10329000A5E5B0E09B01AC010E945B2869877A87B5
:1032A0008B879C879F01DF010E943D289B01AC0119
:1032B0000E9466286D837E838F8398879B01AC0173
:1032C00089819A81AB81BC81280F391F4A1F5B1FFE
:1032D00069857A858B859C850E941528022F30E0B0
:1032E0000A3248F5A901440F551F420F531F559547
:1032F0004795142F1095F12C85E5E82EE01A809162
:103300001101F81630F10E941616AD85BE8514968F
:103310009C9181E0992319F0903219F48FEF8093FA
:103320000A0180910A01890FED85FE8584832E961E
:10333000E6E00C94962885E590E0821B930BAC01A7
:10334000440F551F480F591F57FFD1CF4F5F5F4F95
:10335000CECF8E2DF1FC802F40910F014F0D5527C0
:10336000551F9A01220F331F240F351F2D513D4F3A
:10337000412F6091E0020E946E15F394C0CF0F932D
:103380001F93CF93DF93EC0100E010E04091110117
:10339000842F90E0081719076CF00E9416168C8194
:1033A00090E00196817099278C83DF91CF911F91D6
:1033B0000F91089580910F01800F912F911D9C0115
:1033C000220F331F280F391F2D513D4F9C816091D3
:1033D000E0028091DF02469550E0041715074CF497
:1033E000992349F04091E1020E946E150F5F1F4F33
:1033F000CDCF9923B9F340E0F7CFA4E0B0E0E3E00C
:10340000FAE10C947E28EEEDF2E080818E7F8083DD
:1034100080819181A281B381BC01CD010E94901570
:1034200010929A020E9416162496E2E00C949A28B2
:103430006091DE02669570E04BE050E082E191E041
:103440000E94BA28892B19F481E080939A020E9485
:10345000C62090939302809392020895A4E0B0E076
:10346000E4E3FAE10C947E289091DE0290FF33C0F1
:103470008823A9F18532A8F58F77880F9091DE0215
:103480009170892B8093DE02662361F08091DE02C9
:103490009091DF02A091E002B091E102BC01CD0168
:1034A0000E9490156091DE02669570E04BE050E05E
:1034B00082E191E00E94BA28892BA9F010929A0229
:1034C00081E0809395024091E1026091E002809159
:1034D000DF020E940B182496E2E00C949A2881E007
:1034E000CCCF84E2CACF0E94181AEACF682F80910D
:1034F000DE0286958F5F853208F081E00E942E1AE9
:10350000089581E00E94761A0895682F9091DE0256
:1035100096958FEF890F913009F484E20E942E1A5C
:10352000089581E00E94851A089561E00E942E1A94
:103530000895EEEDF2E080818160808386950E949F
:10354000951A08958091DE0280FF03C00E94FD1944
:1035500008950E94991A089560E00E942E1A089515
:103560008091980281112EC00E947C0D811104C0AF
:103570000E940B0E0E94A5150E948B156093DE021F
:103580007093DF028093E0029093E102623060F476
:103590000E94A5150E948B156093DE027093DF02D6
:1035A0008093E0029093E1020E947D1510929A02AE
:1035B0008091DE0280FF03C086950E94AC1A81E0F4
:1035C0008093980208950F931F93CF93DF93809178
:1035D0009A028823C1F180919902E091DE02E6957A
:1035E000E81BE0939402823009F041C0F0E0EB590F
:1035F000FE4FE491CE2FD0E00DEC16E180919502C4
:10360000882361F0109295020E94C6209093930245
:103610008093920210929702109296020E94C62006
:103620002091920230919302821B930B8F3F9F4710
:1036300050F42C0F3D1F309393022093920282E9A5
:1036400092E0F801099580918F02882359F0109239
:103650008F0280919A02811105C08091DE028695C9
:103660000E94AC1ADF91CF911F910F91089585317F
:1036700009F43BC058F4893021F18F3061F1863074
:10368000B9F0C0EDD7E00AE615E1B8CF833209F40E
:1036900035C0C4EFD1E00FEB19E1843209F4AECFAD
:1036A000C8E2D0E00BE219E1883109F4A7CFE9CFF5
:1036B000F0E0EE59FE4FE491CE2FD0E001EE16E19E
:1036C0009DCFE695F0E0E15AFE4FE491CE2FD0E099
:1036D0000FE018E193CFE695F0E0E45AFE4FE49155
:1036E000CE2FD0E00AE418E189CFF0E0E75AFE4F90
:1036F000E491CE2FD0E00AEB18E180CFE7E5F1E0CE
:10370000C591D49101EF16E179CFFA01882311F028
:1037100009950895FB01FCCFCF93DF93C82FD62FD7
:103720000E94B6158C1748F00E94B6158D1728F424
:103730000E94811ADF91CF9108958C2F0E94951AD3
:10374000F9CF1F93CF93DF93EC01FB01128111118D
:1037500065C00E948A0C8272FE01E052F847E53192
:10376000F10508F05BC0EA5BF64D0C9437280E9427
:10377000A21A812FDF91CF911F91089541E95AE15B
:1037800061E87AE10E94851BF4CF41E85AE161E9E2
:103790007AE1F8CF43EC57E165EB77E1F3CF45EB06
:1037A00057E163EC77E1EECF45EE57E164ED77E169
:1037B000E9CF44ED57E165EE77E1E4CF47E058E12A
:1037C00066EF77E1DFCF46EF57E167E078E1DACFE8
:1037D00040E056E16DED75E1D5CF4DED55E160E08E
:1037E00076E1D0CF81E00E94951AC3CF65E082E0F8
:1037F0000E948C1BBECF68E086E0FACF6EE089E0C5
:10380000F7CF64E18FE0F4CF67E185E1F1CF88E1A4
:10381000EACF62E289E1ECCF83E2E5CF11E0A9CF04
:103820009C01AB01849A61B36F7E71B37061EFB795
:10383000F894CA01880F991F840F951F820F931F58
:103840008217930741F4EFBF8FE594E00197F1F7FA
:1038500000C000000895D9014D919D0158E071BB51
:10386000000000C047FF61BB440F000000C000C063
:1038700000C061BB00C05A9591F7E2CFCF93DF93B0
:10388000EC01FB018281882309F4D2C09E013057EC
:103890002332310508F0B2C00E94910D9093CB0203
:1038A0008093CA02FE01E150F047E232F10520F4B4
:1038B000E55AF64D0C9437288091CA0281608093B6
:1038C000CA0293C08091CB0288608093CB028DC0E6
:1038D0008091CA028260F3CF8091CA028460EFCFE8
:1038E0008091CA028860EBCF8091CB028160EDCFDE
:1038F0008091CB028260E9CF8091CA028061DFCFE4
:103900008091CA028062DBCF8091CA028064D7CFE7
:103910000E9406088091CA028068D1CF8091CA02B5
:103920008C60CDCF8091CB028360CFCF8091CA02D3
:103930008E7FC5CF8091CB02877FC7CF8091CA028F
:103940008D7FBDCF8091CA028B7FB9CF8091CA0293
:10395000877FB5CF8091CB028E7FB7CF8091CB028E
:103960008D7FB3CF8091CA028F7EA9CF8091CA028A
:103970008F7DA5CF8091CA028F7BA1CF0E940608C0
:103980008091CA028F779BCF8091CA02837F97CFA5
:103990008091CB028C7F99CF8091CA0282FB9927BC
:1039A00090F921E0922790FB82F990FB83F987CF71
:1039B0008091CB02982F909591708E7F892B90FBF0
:1039C00081F983CF9091CA02892F8F7B96FF806403
:1039D00076CF0E9406089091CA02892F97FB87F93B
:1039E00080586DCF81E00E940E0E8091CA029091A6
:1039F000CB020E94960D0E94060880E0DF91CF91D5
:103A0000089580E0F0CF9091CA02892F8F7E94FFB5
:103A1000806155CF9091CA02892F8E7F90FF81607F
:103A20004ECF9091CB02892F877F93FF88604DCF37
:103A300081E0E4CFFF920F931F93CF93DF93E82FA2
:103A4000F0E0E259FC4FF490282F26952695269514
:103A500030E0F901E25FFB4F94918770F901E25089
:103A6000FC4F049110E0082E02C0159507950A94AA
:103A7000E2F701701127F901E251FC4FC491D0E047
:103A8000082E02C0D595C7950A94E2F7C170DD27CC
:103A9000E92FF0E002C0F595E7958A95E2F7E0FDA1
:103AA00010C001151105C1F48F2D0E948F05CD2B7B
:103AB00019F08CE20E948F05CDB7DEB7E5E00C94DB
:103AC000972881EE0E948C040115110579F48F2D41
:103AD0000E948F0581EE07C086EE0E948C048F2D18
:103AE0000E948F0586EE0E941D05E1CF86EE0E94A2
:103AF0008C048F2D0E948F0586EE0E941D05EACF53
:103B0000FF920F931F93CF93DF938C01F62EF80152
:103B10008491882309F457C0813009F050C0E8012E
:103B20002196FE018491813099F42196FE018491C1
:103B30000E948F058E010F5F1F4F8F2D882339F351
:103B4000EFE9FFE03197F1F700C000008150F6CFB8
:103B5000823039F4E8012296FE0184910E948C049F
:103B6000E9CF833039F4E8012296FE0184910E9466
:103B70001D05E0CF8430F1F6E8012296FE01849124
:103B800020E030E04AE0FE0131968053990B8A3004
:103B9000910550F02150310968F28FE99FE00197BB
:103BA000F1F700C00000F6CF429FB001439F700DB7
:103BB00011249C01260F371F8491EF01E4CF0E944E
:103BC0001A1DE801B7CFCDB7DEB7E5E00C94972812
:103BD000CF93DF93EB0186319C4719F50E948A0C45
:103BE0009A819923A1F08A7A91E0811101C090E035
:103BF00090939C02882349F085E30E94610C0E9407
:103C0000CD0C80E0DF91CF91089589E2F6CF8091CD
:103C10009C02882321F085E30E94690CF0CF89E2A1
:103C2000FBCF81E0EFCF0F931F93CF93DF93C42F90
:103C3000D22FFC0182818823C9F040939F020E9409
:103C4000C62090939E0280939D0280E28C0F883064
:103C500040F4C77081E001C0880FCA95EAF70E945E
:103C60009805DF91CF911F910F91089510919F02B8
:103C700014133CC080919D0290919E020E94EF20FF
:103C8000883C910598F5C0E2CD0F1D1741F180E207
:103C9000810F883040F4177081E001C0880F1A95B9
:103CA000EAF70E949F05C83020F0802F0E948F0500
:103CB000D8CF91E08D2F877001C0990F8A95EAF7D0
:103CC000892F0E949805802F0E948F05D77081E070
:103CD00001C0880FDA95EAF70E949F05C2CF802FB6
:103CE0000E948F05C83008F0BCCFF0CF80E28C0F67
:103CF000883008F0B6CFC77081E001C0880FCA9540
:103D0000EAF7EACF0F93FC01CB01E851FC47E7301B
:103D1000F10590F5E358F64D0C94372806E221EEB4
:103D200041EE6AE17CE70E94131E80E00F91089546
:103D300007E225EE45EE6BE17CE7F5CF06E221EEEA
:103D400040EE68E17CE7EFCF07E225EE44EE69E163
:103D50007CE7E9CF06E221EE42EE6CE17CE7E3CFBF
:103D600007E225EE46EE6DE17CE7DDCF08E221E0DB
:103D700045EE6EE17CE7D7CFFB0182818111109285
:103D80009F0281E0D3CF9093C1018093C001089539
:103D90009093A5028093A4020895E091A402F0916B
:103DA000A502309729F00190F081E02D0995089542
:103DB00080E00895DC01E091A402F091A502309723
:103DC00099F080912501882351F08091CA0287FFE4
:103DD00006C08C9111968C93119786E08C9302808B
:103DE000F381E02DCD0109950895DC01E091A40255
:103DF000F091A502309739F082E08C930480F58130
:103E0000E02DCD0109950895A3E0B0E0EAE0FFE1DF
:103E10000C947E289C018091A2029091A3028217AB
:103E20009307A1F03093A3022093A202E091A40291
:103E3000F091A502309751F083E089833B832A8378
:103E40000680F781E02DCE01019609952396E2E0E8
:103E50000C949A28A3E0B0E0E0E3FFE10C947E2804
:103E60009C018091A0029091A10282179307A1F07A
:103E70003093A1022093A002E091A402F091A50248
:103E8000309751F084E089833B832A830680F78151
:103E9000E02DCE01019609952396E2E00C949A2834
:103EA0009C012E5F3F4F80912501882321F0809156
:103EB000CA029DE187FF95E080E0F90140812F5F14
:103EC0003F4F41118F5F9150C0F708959C016623C9
:103ED00001F1809125018823F1F08091CA0287FFCA
:103EE0001AC0462F469546954695603F90F46770F8
:103EF00081E090E002C0880F991F6A95E2F7240FD5
:103F0000311DF901228130E02823392381E0232B60
:103F100071F480E00895F9013296285F3F4F819156
:103F2000861721F0E217F307D1F7F3CF81E0089568
:103F30009C01FC0132968FEF90E04191461751F0C1
:103F40008F3F19F4411101C0892F9F5F9630A9F767
:103F50008F3F09F40895280F311D87FD3A95F90127
:103F6000628308959C01FC013296285F3F4F819146
:103F7000861303C0DF0111971C92E217F307B9F70C
:103F80000895FC01862F869586958695603F60F49E
:103F9000E80FF11D677021E030E001C0220F6A9543
:103FA000EAF78281822B82830895FC01862F869511
:103FB00086958695603F80F4E80FF11D677081E07B
:103FC00090E09C0102C0220F331F6A95E2F7B9010D
:103FD00060958281682362830895209125012223C0
:103FE00039F02091CA0227FF03C00E94C11F089523
:103FF0000E94981F089520912501222339F02091D5
:10400000CA0227FF03C00E94D51F08950E94B21F55
:104010000895FC01329680912501882351F080910A
:10402000CA0287FF06C08EE1DF011D928A95E9F77B
:10403000089586E0F9CF46E050E00E94C7289C0131
:1040400081E0232B09F480E0089508950E94252043
:1040500008958F5F8093A6020E942620089583E032
:104060008093A6020E94262008950E942920089588
:1040700081E08093A6020E94262008950E943820A5
:104080000895089508950E9442200895089508957E
:104090000E9441200895CF930E9446200E94B911AA
:1040A0000E944720C0E08C2F0E94FD10811105C0A6
:1040B000CF5FC930C1F7CF91089581E0FCCF85B7BC
:1040C000806885BF85B7806885BF08951F921FB639
:1040D0001F9211248F939F93AF93BF938091A70258
:1040E000811113C08091F5029091F602A091F70220
:1040F000B091F8024196A11DB11D8093F5029093F5
:10410000F602A093F702B093F802BF91AF919F918E
:104110008F911F901FBE1F9018958091FD028430D3
:1041200031F10E94FB031092A70288E190E020E4A5
:104130000FB6F894A895809360000FBE209360009E
:1041400083B7817F846083BF83B7816083BF7894A6
:10415000889583B78E7F83BF0FB6F894A89580911A
:104160006000886180936000109260000FBE089527
:104170000E9406080E940004089582E084BD93E036
:1041800095BD9AEF97BD80936E0008952FB7F89470
:104190008091F5029091F602A091F702B091F80299
:1041A0002FBF0895A4E0B0E0E8EDF0E20C947E2883
:1041B0008FB7F8942091F5023091F6024091F70202
:1041C0005091F80229833A834B835C838FBF6981C6
:1041D0007A818B819C812496E2E00C949A289C0140
:1041E0004FB7F8948091F5029091F602A091F702F2
:1041F000B091F8024FBF821B930B089578941F92E1
:104200001FB61F9211248F939F93AF93BF938091FA
:10421000F5029091F602A091F702B091F802019692
:10422000A11DB11D8093F5029093F602A093F702B1
:10423000B093F802BF91AF919F918F911F901FBED5
:104240001F90189581E08093E00080E28093D80071
:104250001092C9008FE19EE40197F1F700C00000C1
:1042600087E090EBDC018093060390930703A09313
:104270000803B093090388E19CE00FB6F894A89571
:10428000809360000FBE90936000FFCF88E19CE0B8
:104290000FB6F894A895809360000FBE90936000CD
:1042A000FFCF8091C8020895282FCB01BA01309129
:1042B000FD023430E1F42F702093E9002FEF3091AC
:1042C000E80035FD07C035ED3A95F1F700002150C3
:1042D0002111F5CF2091E80025FF09C040E050E012
:1042E0000E945D238091E8008E778093E800089516
:1042F000BC0143E050E082E00E9454210895BC01DB
:1043000046E050E082E00E9454210895CF93DF936D
:10431000D82FC92F80912501811113C048E050E0AA
:104320006D2F792F81E00E94542180E2ED2FFC2F28
:10433000A8EAB2E001900D928A95E1F7DF91CF9162
:1043400008958091CA0287FD06C048E081E050E0F0
:104350006D2F7C2FE8CF40E282E0F9CF8091FC0204
:10436000811109C00E94E5240E9442258091E2004B
:1043700084608093E20008951092FC0208950E94E8
:10438000382008956091F90281E0611101C080E058
:104390000E942F2008959091FD0281E0943009F051
:1043A00080E06091F9020E943520089542E061ECBE
:1043B00081E00E94612442E261EC82E00E9461247B
:1043C0009091FD0281E0943009F080E06091F90263
:1043D0000E94292008958091FF02893089F148F4D4
:1043E000823009F4A0C0833009F45AC0813041F012
:1043F00008958A3009F487C08B3009F46CC00895A1
:104400008091FE02813A09F04AC08091E800877FDE
:104410008093E8008091020390910303892B61F05F
:1044200060E080E090E070E00E94AC238091E800C2
:104430008B778093E800089560E288EA92E0F3CFFA
:104440008091FE02813259F580910203909103031D
:10445000029728F58091E800877F8093E80080919B
:10446000E80082FF18C09091F3008091F20002975B
:1044700031F48091F100813011F0863021F4809187
:10448000F1008093C8028091E8008B778093E80068
:104490000E94952404C08091FD028111E0CF08950F
:1044A0008091FE02813AD9F7809102039091030333
:1044B000892BA9F78091E800877F8093E80080919D
:1044C000E80080FFFCCF809125018093F10080916E
:1044D000E8008E77DBCF8091FE02813201F7809178
:1044E000020390910303892BD1F68091E800877F26
:1044F0008093E8000E949524809100038093250119
:104500000E94060808958091FE02813241F6809152
:10451000E800877F8093E8000E9495248091010342
:104520008093C90208958091FE02813A09F0B7CFC5
:104530008091E800877F8093E8008091E80080FF09
:10454000FCCF8091C902C1CF84B7877F84BF0FB6EB
:10455000F894A89580916000886180936000109223
:1045600060000FBE80E890E00FB6F8948093610081
:10457000909361000FBE0E943E2008950E94E524A2
:104580000E944225E2EEF0E080818460808378948E
:104590000E94C52708958DE191E00E94C81E0895EC
:1045A0008091FD02853031F48091FD02853019F053
:1045B0000E94B82008950E948D208091FB028823DC
:1045C00099F30E944B20882379F30E9447230E948D
:1045D0000608EACF08950E94EE220895FC01CB015F
:1045E000DA012F2F332723303105E1F058F4213041
:1045F0003105C9F122303105D9F180E090E020E0A9
:1046000030E01EC02132310521F122323105A9F7F7
:10461000892BC1F16130710581F786EB90E02FE8BD
:1046200034E00EC0CF019927E13069F08230910566
:1046300069F0EEE3F4E0892B01F7849190E09F01AB
:104640002D933C930895E2E3F4E0F7CFEEE1F4E03C
:10465000F4CF892B91F06130710579F689E090E013
:104660002DE634E0EDCF82E190E02DE734E0E8CFB5
:104670008BE390E022E434E0E3CF89E090E024E5AE
:1046800034E0DECF80E490E025E435E0D9CF80E16E
:1046900089BD82E189BD09B400FEFDCF8091D800BB
:1046A0008F7D8093D8008091E00082608093E0004D
:1046B0008091E00081FDFCCF0895AF92BF92CF9230
:1046C000DF92FF920F931F93CF93DF936C01EB0167
:1046D0008A010E94B424F82E811123C0011511050E
:1046E00039F0F80180819181C81BD90BC80ED91E01
:1046F000A12CB12C2097A9F08091E80085FD22C063
:104700008091E8008E778093E80001151105A1F0F3
:10471000F801808191818A0D9B1D9183808385E0C2
:10472000F82E8F2DDF91CF911F910F91FF90DF9089
:10473000CF90BF90AF9008950E94B4248823E1F2F7
:10474000F82EEFCFF60181916F018093F100219750
:10475000FFEFAF1ABF0ACECFFC019B01809104038B
:10476000909105038617970718F0672B61F0C90130
:1047700040E0009771F441110CC08091E80082FF85
:1047800035C080E008958091E8008E778093E8003E
:10479000EECF2091FD022223A9F12530A9F120912D
:1047A000E80023FD2DC02091E80022FDE6CF2091F6
:1047B000E80020FFDECF3091F3002091F200009757
:1047C00019F02830310558F041E02830310509F062
:1047D00040E02091E8002E772093E800CACF419175
:1047E0004093F10001972F5F3F4FE9CF8091FD0289
:1047F000882341F0853041F08091E80083FFBDCFF0
:1048000081E0089582E0089583E00895FC019B0112
:1048100080910403909105038617970718F0672B82
:1048200061F0C90140E0009771F441110CC0809122
:10483000E80082FF36C080E008958091E8008E771E
:104840008093E800EECF2091FD022223B1F12530C4
:10485000B1F12091E80023FD2EC02091E80022FD57
:10486000E6CF2091E80020FFDECF3091F3002091C9
:10487000F200009719F02830310558F041E0283057
:10488000310509F040E02091E8002E772093E80000
:10489000CACF44914093F100319601972F5F3F4F6B
:1048A000E8CF8091FD02882341F0853041F080916E
:1048B000E80083FFBCCF81E0089582E0089583E0A3
:1048C0000895982F973028F08F708093E90081E049
:1048D00008959093E900242F762F50E0981731F037
:1048E0007091EC002091ED005091F00021FD02C08C
:1048F0009F5FE8CF3091EB003E7F3093EB0030912B
:10490000ED003D7F3093ED003091EB00316030934E
:10491000EB007093EC002093ED005093F000209199
:10492000EE0027FDE5CF80E008958091FE0287FF2D
:1049300013C08091E80082FF06C08091E8008B7769
:104940008093E80004C08091FD028111F2CF0895A8
:104950008091FD028823D9F38091E80080FFF8CF91
:104960008091E8008E77ECCF2091E4003091E50053
:1049700095E6A9018091EC008170882331F0809147
:10498000E80080FF06C080E008952091E80022FD45
:104990001BC08091FD02882391F0853091F08091B9
:1049A000EB0085FD10C02091E4003091E500421736
:1049B000530701F391509111DCCF84E0089582E018
:1049C000089583E0089581E008950E9454250E948F
:1049D0005C25E0EEF0E0808181608083E8EDF0E02E
:1049E00080818F77808319BCA7EDB0E08C918E7F9A
:1049F0008C9380818F7E80831092FC0208950F93A8
:104A00001F93CF93DF930E9454250E945C25C8ED2D
:104A1000D0E088818F7788838881806888838881C7
:104A20008F7D888319BC1092FD021092F9021092BA
:104A3000FB021092FA0200EE10E0F80180818B7FF9
:104A4000808388818160888342E060E080E00E940A
:104A50006124E1EEF0E080818E7F8083E2EEF0E081
:104A6000808181608083808188608083F80180817B
:104A70008E7F8083888180618883DF91CF911F91B1
:104A80000F910895E8EDF0E080818F7E8083E7ED5F
:104A9000F0E080818160808384E082BF81E0809348
:104AA000FC020E94FF240895E8EDF0E080818E7FF3
:104AB00080831092E20008951092DA001092E100D3
:104AC00008951F920F920FB60F9211242F933F93C8
:104AD0004F935F936F937F938F939F93AF93BF9306
:104AE000EF93FF938091E10082FF0BC08091E20081
:104AF00082FF07C08091E1008B7F8093E1000E94DC
:104B0000C4278091DA0080FF19C08091D80080FF0F
:104B100015C08091DA008E7F8093DA008091D900F1
:104B200080FF94C080E189BD82E189BD09B400FEA7
:104B3000FDCF81E08093FD020E94AE218091E100D3
:104B400080FF19C08091E20080FF15C08091E200D3
:104B50008E7F8093E2008091E20080618093E2008A
:104B60008091D80080628093D80019BC85E0809342
:104B7000FD020E94C2218091E10084FF29C0809142
:104B8000E20084FF25C080E189BD82E189BD09B4CE
:104B900000FEFDCF8091D8008F7D8093D80080915A
:104BA000E1008F7E8093E1008091E2008F7E809310
:104BB000E2008091E20081608093E2008091F9023E
:104BC000882309F449C084E08093FD020E94CB2130
:104BD0008091E10083FF29C08091E20083FF25C01E
:104BE0008091E100877F8093E10082E08093FD0265
:104BF0001092F9028091E1008E7F8093E100809114
:104C0000E2008E7F8093E2008091E20080618093D9
:104C1000E20042E060E080E00E9461248091F000C8
:104C200088608093F0000E94BF21FF91EF91BF91B7
:104C3000AF919F918F917F916F915F914F913F9134
:104C40002F910F900FBE0F901F90189519BC1092C6
:104C5000FD020E94BC2172CF8091E30087FF02C059
:104C600083E0B2CF81E0B0CF1F920F920FB60F92C8
:104C70001124FF920F931F932F933F934F935F93B2
:104C80006F937F938F939F93AF93BF93CF93DF9354
:104C9000EF93FF9309EE10E0F8018081C091EC00E2
:104CA000C795CC27C7958F70FC2EF82A1082C0EFCD
:104CB000D0E08881877F888378940E947D26F801E0
:104CC0001082888188608883CF2DCF70C083FF9148
:104CD000EF91DF91CF91BF91AF919F918F917F9194
:104CE0006F915F914F913F912F911F910F91FF9085
:104CF0000F900FBE0F901F901895AAE2B0E0E3E866
:104D0000F6E20C947D288EEF92E0FC010196209152
:104D1000F100208323E086309207B9F70E94EB214F
:104D20008091E80083FF38C08091FE029091FF02DD
:104D30009A3090F5E92FF0E0EC57F64D0C943728B7
:104D4000803889F0823841F5809102038F70873076
:104D500018F58093E9008091EB0085FB882780F9A6
:104D60001092E90006C08091FA029091FB02911125
:104D700082609091E800977F9093E8008093F10023
:104D80001092F1008091E8008E7723C0811116C047
:104D900080910003813011F18091E80083FF0AC007
:104DA0008091E800877F8093E8008091EB0080622B
:104DB0008093EB00AA96E3E00C949928823061F787
:104DC00080910003882389F01092E9008091E80027
:104DD000877F8093E8000E949524DECF81E09330A6
:104DE00009F080E08093FB02EFCF809102038F7087
:104DF0002FEF280F263080F68093E9002091EB00FA
:104E000020FFE2CF933031F48091EB0080628093F9
:104E1000EB00DACF9091EB0090619093EB0021E0F2
:104E200030E0A90102C0440F551F8A95E2F7409374
:104E3000EA001092EA008091EB008860E8CF8111CF
:104E4000ABCF109100031F778091E3008078812B16
:104E50008093E3008091E800877F8093E8000E94C0
:104E600095248091E80080FFFCCF8091E30080686A
:104E70008093E30083E0111101C082E08093FD0282
:104E80008BCF8058823008F087CF809100039091BB
:104E900001038C3D53E0950799F583E08A838AE20C
:104EA00089834FB7F894DE01139620E03EE051E28B
:104EB000E32FF0E050935700849120FF03C08295C8
:104EC0008F703F5F8F708A30C8F0895C90E08D935F
:104ED0009D932F5F243161F74FBF8091E800877F5A
:104EE0008093E8006AE270E0CE0101960E94AC2354
:104EF0008091E8008B778093E8004ECF805DE6CF0D
:104F00006091020370910303AE014F5F5F4F0E94F7
:104F1000EB22BC01892B09F43FCF8091E800877F09
:104F20008093E80089819A810E940624E1CF80382D
:104F300009F032CF8091E800877F8093E80080916C
:104F4000F9028093F1001ECF811126CF90910003CA
:104F5000923008F021CF8091E800877F8093E800AD
:104F60009093F9020E9495248091F902882331F0F0
:104F700084E08093FD020E94D6210ECF8091E30051
:104F800087FDF6CF81E0F5CF0895CF938091FD02A4
:104F9000882399F08091E900C091EC00C795CC2757
:104FA000C7958F70C82B1092E9008091E80083FDAF
:104FB0000E947D26CF70C093E900CF91089587FBB2
:104FC000082E062687FD819567FD61950E94A5281C
:104FD0000EF4919507FC81950895AA1BBB1B51E126
:104FE00007C0AA1FBB1FA617B70710F0A61BB70B59
:104FF000881F991F5A95A9F780959095BC01CD01FE
:10500000089597FB072E16F4009407D077FD09D07A
:105010000E94ED2707FC05D03EF4909581959F4FA7
:105020000895709561957F4F0895A1E21A2EAA1BED
:10503000BB1BFD010DC0AA1FBB1FEE1FFF1FA21748
:10504000B307E407F50720F0A21BB30BE40BF50B45
:10505000661F771F881F991F1A9469F760957095CE
:10506000809590959B01AC01BD01CF010895EE0F95
:10507000FF1F0590F491E02D09940E9445283323E9
:1050800012F48A1B9B0B0C945628A29FB001B39F6D
:10509000C001A39F700D811D1124911DB29F700D41
:1050A000811D1124911D08950E944528B7FF089580
:1050B000821B930B08950E944528A59F900DB49FD5
:1050C000900DA49F800D911D11240895B7FF0C949D
:1050D0005B280E945B28821B930B08952F923F92BE
:1050E0004F925F926F927F928F929F92AF92BF92F8
:1050F000CF92DF92EF92FF920F931F93CF93DF93A4
:10510000CDB7DEB7CA1BDB0B0FB6F894DEBF0FBE00
:10511000CDBF09942A88398848885F846E847D844D
:105120008C849B84AA84B984C884DF80EE80FD804F
:105130000C811B81AA81B981CE0FD11D0FB6F894C5
:10514000DEBF0FBECDBFED010895991B79E004C00D
:10515000991F961708F0961B881F7A95C9F78095B6
:105160000895FB01DC0102C005900D9241505040B2
:10517000D8F70895FC014150504030F001900616D8
:10518000D1F73197CF010895882799270895FB011A
:10519000DC0104C08D910190801921F441505040F0
:1051A000C8F7881B990B0895FB01DC0102C0019030
:1051B0000D9241505040D8F70895F999FECF92BD15
:1051C00081BDF89A992780B50895A6E1B0E044E042
:1051D00050E00C941729A8E1B0E042E050E00C94B4
:1051E0001729262FF999FECF92BD81BDF89A019714
:1051F00000B4021639F01FBA20BD0FB6F894FA9A1F
:10520000F99A0FBE08950396272F0E94F2280E9454
:10521000F128252F0E94F228242F0C94F2280196C1
:10522000272F0E94F2280C94F128DC01CB01FC010D
:10523000F999FECF06C0F2BDE1BDF89A319600B4EF
:105240000D9241505040B8F70895F894FFCFDD0516
:10525000DD050D060D069506B20638063806B706BA
:10526000310742074207DF12E512E812EE1203137C
:105270000313031303130313031303130313F11291
:10528000F612FA120013111317131B13B71BBE1BD0
:10529000C51BCA1BCF1BD41BD91BDE1BE31BE81B82
:1052A000ED1BF21BF61BFB1BFE1B011C041C071C49
:1052B000091C0C1CB91B961C0A1D9E1C681C6C1C2E
:1052C000A21C701CA61CB21C7C1C031D801CB61CDE
:1052D000841CBA1CE21C881CBE1CE91C8E1CC41C4D
:1052E000CC1C741CAA1C781CAE1C921CC81CD81C9C
:1052F000F21C011D621C9A1C111D9E1EA41E8E1EF6
:10530000981EAA1EB01EB61EA026C626CC26C626ED
:0C531000CC261F274127CC269727A42776
:10531C004602280850011E0A140101010200060071
:10532C00060601191A1B1C1D1E1F20212251218645
:10533C00217F21782101E200E900EA00B500B600E6
:10534C00B700CD008301CC008A01920194012102A7
:10535C00230224022502260227022A02B300B400EB
:10536C006F0070009F01CB01E200E900EA00B5007C
:10537C00B600B700CD008301CC008A0192019401E4
:10538C002102230224022502260227022A02B3004C
:10539C00B4006F0070009F01CB01949697343536A2
:1053AC003391F5F69231F0F7959300010202020267
:1053BC000606060909090909090F0F0F0F0F0F152A
:1053CC00151518191919191919191919192324004E
:00000001FF
